:2000000021EFFF3636366636902B36102B364E2B3610361501FFFF3E0A32E3FF05C21C00E9
:20002000EE010DC2190021008001E0FF1100003E8232E3FF3E4432F8FF3E3377AEB35F3EF2
:20004000CC77AEB35F237DE601C239003ECC77AEB35F3E3377AEB35F237DE601C24C007C21
:20006000B8DA39007DB9DA3900537BB7C252013E0A26706C32E3FF2DC27700EE0125C273C5
:20008000003E8232E3FF3E5532F8FF21008001E0FF36552336AA233E1F3DC299007CB8DA9B
:2000A00091007DB9DA91003E0A26706C32E3FF2DC2AF00EE0125C2AB003E8232E3FF3E334C
:2000C00032F8FF2100800100C01100003E55AEB35F3EAA7723AEB35F3E5577233E193DC26C
:2000E000DE007CB8DACC007DB9DACC004B5A510EE03E3FB78047D2CC003E0A26706C32E390
:20010000FF2DC20101EE0125C2FD003E8232E3FF3EEE32F8FF2100800100C03EAAAEB35FE9
:200120003E557723AEB35F3EAA77233E193DC22D017CB8DA1B017DB9DA1B014B5A510EE092
:200140003E3FB78047D21B013E8232E3FF3E2232F8FF269D2E3036AA2C36552C3EC2ADC206
:2001600056016F243EB3ACC254013E3432F8FF26A02E4F3E028467064F3E0880473E0185B2
:200180006F7AE601C2920136002C7DB8C28701C39A0136FF2C7DB8C292017A0F535F78FE5F
:2001A0005FC279017CFEB0C27101EBF93E9F32F8FF213FA211DD0101160A1A13FE00CA98BD
:2001C00002FE0ACAD701FE0DCAD001772CC3BA01247D906FC3BA01215B9FC3BA01FFFFFFF8
:2001E000FFFFFFFFFFFFFF0DFF01EFEFEFEFEFEFEFFF0DFF83BFBF87BFBFBF83FF0DFF878B
:200200007B7F7F7F7F7B87FF0DFF01EFEFEFEFEFEFEFFF0DFFFFFFFFFFFFFFFFFFFF0DFFC2
:20022000C3BDBDBDBDBDBDC3FF0DFFC3BDFDE3FDFDBDC3FF0DFFBDBDBDBDC1FDFD83FF0D9C
:20024000FFFFFFFFFFFFFFFFFFFF0DFFFFFFFFFFFFFFFFFFFF0DFFE3DFBF83BDBDBDC3FF9C
:200260000DFFFBF3EBDBBB81FBFBFF0DFFBDBBB7AF8FB7BBBDFF0DFFFFFFFFFFFFFFFFFFE2
:20028000FF0AFFC3BDBFC3FDFDBDC3FF0DFFC3BDB9B5AD9DBDC3FF00210000397DB4B7CA0C
:2002A000DD022178AA060A78555C32E3FF15C2AD0255EE011DC2AA024C656905C2A8023EB1
:2002C0000032E0FF32E2FF32F8FF3AE1FFE602C2CA023AE1FFE602CAD202C30000210004B9
:2002E00011E0FB01FF037E1278B1CAE0FB23130BC3E60231FF8FCDAEFF32FCFF210000013D
:2003000000801100003E3377AEB35F3ECC77AEB35F237DE601C2F2FB3ECC77AEB35F3E337B
:2003200077AEB35F237DE601C205FC7CB8C2F2FB537BB7C2A3FCCDAEFF2100000100803621
:20034000552336AA233E1F3DC234FC7CB8C22CFC7DB9C22CFCCDAEFF210000010240110069
:20036000003E55AEB35F3EAA7723AEB35F3E5577233E193DC260FC7CB8C24EFC7B5A573E5F
:200380004080470DC24EFCCDAEFF2100000102403EAAAEB35F3E557723AEB35F3EAA772348
:2003A0003E193DC28FFC7CB8C27DFC7B5A573E4080470DC27DFC3E8232E3FF3E3432F8FFC5
:2003C00026A02E5F3E028467065F3E0880473E01856F7AE601C2D0FC36002C7DB8C2C5FCF1
:2003E000C3D8FC36FF2C7DB8C2D0FC7A0F535F78FE6FC2B7FC7CFEB0C2AFFC7BB2C4BEFE69
:2004000031FF8FCDAEFF32FCFF2100000100801100003E3377AEB35F3ECC77AEB35F237D3A
:20042000E601C2F2FB3ECC77AEB35F3E3377AEB35F237DE601C205FC7CB8C2F2FB537BB78B
:20044000C2A3FCCDAEFF21000001008036552336AA233E1F3DC234FC7CB8C22CFC7DB9C2CC
:200460002CFCCDAEFF2100000102401100003E55AEB35F3EAA7723AEB35F3E5577233E194C
:200480003DC260FC7CB8C24EFC7B5A573E4080470DC24EFCCDAEFF2100000102403EAAAEC3
:2004A000B35F3E557723AEB35F3EAA77233E193DC28FFC7CB8C27DFC7B5A573E4080470DED
:2004C000C27DFC3E8232E3FF3E3432F8FF26A02E5F3E028467065F3E0880473E01856F7AD5
:2004E000E601C2D0FC36002C7DB8C2C5FCC3D8FC36FF2C7DB8C2D0FC7A0F535F78FE6FC2D0
:20050000B7FC7CFEB0C2AFFC7BB2C4BEFECDAEFF0198FD2178A2CDEEFE0183FE21A99FCD28
:20052000EEFE3E00CD0DFF21A9A2CD9AFE016CFE219E9FCDEEFE3E01CD0DFF219EA2CD9A85
:20054000FE0155FE21939FCDEEFE3E02CD0DFF2193A2CD9AFE013EFE21889FCDEEFE3E03EA
:20056000CD0DFF2188A2CD9AFEC4BEFE01B50A696125C251FD2DC250FD693E0A6132E3FF51
:2005800025C260FDEE012DC25CFD3E9132E3FF3AE0FFFEFFC249FD3AE2FFF6F0FEFFC249D6
:2005A000FD3E8232E3FF3AE1FFE602CA92FD05C24FFD32FEFFC30000FFFFFFFFFFFFFFFF12
:2005C000FFFF00FF83BDBDBD83B7BBBDFF00FFE7DBBDBDBD81BDBDFF00FFBD99A5BDBDBD90
:2005E000BDBDFF00FF87DBDDDDDDDDDB87FF00FFC3E7E7E7E7E7E7C3FF00FFC3BDBFC3FD60
:20060000FDBDC3FF00FFBDBBB7AF8FB7BBBDFF00FFFFFFFFFFFFFFFFFFFF00FFFBF3EBDB1B
:20062000BB81FBFBFF00FFFFFFBBD7EFD7BBFFFF00FFE3DFBF83BDBDBDC3FF00FFFBF3EBA7
:20064000DBBB81FBFBFF00FFBDBBB7AF8FB7BBBDFF00FFFFFFFFFFFFFFFFFFFF0000FFC33C
:20066000BDBFC3FDFDBDC3FF00FFFBF3EBDBBB81FBFBFF0000FFC3BDBFC3FDFDBDC3FF0064
:20068000FF81FBF7E3FDFDBDC3FF0000FFC3BDBFC3FDFDBDC3FF00FFC3BDFDFBF7EFDF8155
:2006A000FF0000FFC3BDBFC3FDFDBDC3FF00FFF7E7D7F7F7F7F7C1FF00003E8232E3FF3E5F
:2006C0003432F8FF1608E5CDE7FE060A772C05C2ACFEE17B0F5F242415C2A6FEB7C821783F
:2006E000AA060A78555C32E3FF15C2C9FE55EE011DC2C6FE4C656905C2C4FE3E0032E0FF8C
:2007000032E2FF32F8FFC97BE601C83EFFC93E8232E3FF3E9F32F8FFE50AB7CA04FF772CB4
:2007200003C3F9FEE124030AB7C2EEFEC932C1FF21000011000001C0FF3E55CDD2FF3E5514
:20074000CDC2FFB35F3CC8233EAACDD2FF3EAACDC2FFB35F3CC8233E0F3DC239FF7CB8C223
:2007600019FF7DB9C219FFCDAEFF21000001C0FF110000E5C53E55CDC2FFB35F3EAACDD281
:20078000FF233EAACDC2FFB35F3E55CDD2FF233E193DC271FF7CB8C255FF7DB9C255FFCD32
:2007A000AEFFC1E13EAACDC2FFB35F3E55CDD2FF233E55CDC2FFB35F3EAACDD2FF233E19DB
:2007C0003DC2A0FF7CB8C284FF7DB9C284FF3E0A26706C32E3FF2DC2B6FFEE0125C2B2FFFE
:2007E000C901C5473AC1FF32FDFF4E32FCFF78A9C1C9C54F3AC1FF32FDFF7132FCFFC1C971
:00000001FF
