:20000000300131023203330434053506360737000000000000000000000000000000000028
:200020000000000000000000000000000000000000000000000000000000000000000000C0
:200040000000000000000000000000000000000000000000000000000000000000000000A0
:20006000000000000000000000000000000000000000000000000000000000000000000080
:20008000000000000000000000000000000000000000000000000000000000000000000060
:203000000000000000000000000000000000000000007E81A58181BD9981817E0000000034
:2030200000007EFFDBFFFFC3E7FFFF7E00000000000000006CFEFEFEFE7C381000000000EC
:203040000000000010387CFE7C38100000000000000000183C3CE7E7E718183C0000000039
:20306000000000183C7EFFFF7E18183C00000000000000000000183C3C18000000000000EE
:20308000FFFFFFFFFFFFE7C3C3E7FFFFFFFFFFFF00000000003C664242663C000000000020
:2030A000FFFFFFFFFFC399BDBD99C3FFFFFFFFFF00001E0E1A3278CCCCCCCC780000000050
:2030C00000003C666666663C187E18180000000000003F333F3030303070F0E00000000069
:2030E00000007F637F6363636367E7E6C00000000000001818DB3CE73CDB1818000000007A
:203100000080C0E0F0F8FEF8F0E0C080000000000002060E1E3EFE3E1E0E060200000000BF
:203120000000183C7E1818187E3C180000000000000066666666666666006666000000000D
:2031400000007FDBDBDB7B1B1B1B1B1B00000000007CC660386CC6C66C380CC67C00000099
:203160000000000000000000FEFEFEFE000000000000183C7E1818187E3C187E00000000ED
:203180000000183C7E18181818181818000000000000181818181818187E3C18000000003B
:2031A0000000000000180CFE0C1800000000000000000000003060FE6030000000000000AB
:2031C000000000000000C0C0C0FE00000000000000000000002466FF66240000000000009E
:2031E000000000001038387C7CFEFE000000000000000000FEFE7C7C3838100000000000E7
:20320000000000000000000000000000000000000000183C3C3C181818001818000000006A
:20322000006666662400000000000000000000000000006C6CFE6C6C6CFE6C6C0000000048
:203240000010107CD6D0D07C1616D67C1010000000000000C2C60C183060C68600000000BA
:203260000000386C6C3876DCCCCCCC760000000000303030600000000000000000000000EA
:2032800000000C18303030303030180C00000000000030180C0C0C0C0C0C183000000000EE
:2032A0000000000000663CFF3C66000000000000000000000018187E1818000000000000ED
:2032C0000000000000000000001818183000000000000000000000FE000000000000000078
:2032E000000000000000000000001818000000000000000002060C183060C08000000000A2
:2033000000007CC6CECED6D6E6E6C67C0000000000001838781818181818187E000000003F
:2033200000007CC6060C183060C0C6FE0000000000007CC606063C060606C67C000000002F
:2033400000000C1C3C6CCCFE0C0C0C1E000000000000FEC0C0C0FC060606C67C0000000003
:2033600000003860C0C0FCC6C6C6C67C000000000000FEC606060C183030303000000000F1
:2033800000007CC6C6C67CC6C6C6C67C0000000000007CC6C6C67E0606060C78000000006D
:2033A00000000000181800000018180000000000000000001818000000181830000000001D
:2033C000000000060C18306030180C060000000000000000007E00007E00000000000000DD
:2033E0000000006030180C060C1830600000000000007CC6C60C18181800181800000000D3
:2034000000007CC6C6C6DEDEDEDCC07C00000000000010386CC6C6FEC6C6C6C600000000D6
:203420000000FC6666667C66666666FC0000000000003C66C2C0C0C0C0C2663C0000000086
:203440000000F86C6666666666666CF8000000000000FE6662687868606266FE000000000C
:203460000000FE6662687868606060F00000000000003C66C2C0C0DEC6C6663A0000000040
:203480000000C6C6C6C6FEC6C6C6C6C60000000000003C18181818181818183C0000000000
:2034A00000001E0C0C0C0C0CCCCCCC78000000000000E666666C78786C6666E600000000AA
:2034C0000000F06060606060606266FE000000000000C6EEFEFED6C6C6C6C6C60000000092
:2034E0000000C6E6F6FEDECEC6C6C6C60000000000007CC6C6C6C6C6C6C6C67C0000000040
:203500000000FC6666667C60606060F00000000000007CC6C6C6C6C6C6D6DE7C0C0E000027
:203520000000FC6666667C6C666666E60000000000007CC6C660380C06C6C67C00000000A3
:2035400000007E7E5A1818181818183C000000000000C6C6C6C6C6C6C6C6C67C00000000D7
:203560000000C6C6C6C6C6C6C66C3810000000000000C6C6C6C6D6D6D6FE6E6C00000000BB
:203580000000C6C66C7C38387C6CC6C6000000000000666666663C181818183C0000000063
:2035A0000000FEC6860C183060C2C6FE0000000000003C30303030303030303C000000008F
:2035C0000000000080C06030180C06020000000000003C0C0C0C0C0C0C0C0C3C0000000017
:2035E00010386CC600000000000000000000000000000000000000000000000000FF000052
:20360000303018000000000000000000000000000000000000780C7CCCCCCC7E0000000050
:203620000000E06060786C666666667C0000000000000000007CC6C0C0C0C67C000000002E
:2036400000001C0C0C3C6CCCCCCCCC760000000000000000007CC6FEC0C0C67C00000000E6
:203660000000386C6460F060606060F000000000000000000076CCCCCCCCCC7C0CCC780044
:203680000000E060606C7666666666E60000000000001818003818181818183C000000000E
:2036A00000000606000E06060606060666663C000000E06060666C78786C66E600000000AA
:2036C00000003818181818181818183C000000000000000000ECFED6D6D6D6C600000000AE
:2036E0000000000000DC6666666666660000000000000000007CC6C6C6C6C67C00000000B4
:203700000000000000DC66666666667C6060F000000000000076CCCCCCCCCC7C0C0C1E007F
:203720000000000000DC7666606060F00000000000000000007CC660380CC67C0000000099
:203740000000103030FC30303030361C000000000000000000CCCCCCCCCCCC7600000000AD
:20376000000000000066666666663C18000000000000000000C6C6D6D6D6FE6C000000007F
:203780000000000000C3663C183C66C3000000000000000000C6C6C6C6C6C67E060CF8001B
:2037A0000000000000FECC183060C6FE0000000000000E18181870181818180E000000009F
:2037C000000018181818001818181818000000000000701818180E1818181870000000007B
:2037E000000076DC0000000000000000000000000000000010386CC6C6C6FE000000000073
:2038000000003C66C2C0C0C0C2663C0C067C00000000CC0000CCCCCCCCCCCC760000000008
:20382000000C1830007CC6FEC0C0C67C000000000010386C00780C7CCCCCCC7600000000A4
:203840000000CC0000780C7CCCCCCC76000000000060301800780C7CCCCCCC760000000040
:2038600000386C3800780C7CCCCCCC7600000000000000003C666060663C0C063C00000040
:203880000010386C007CC6FEC0C0C67C000000000000C600007CC6FEC0C0C67C00000000AA
:2038A00000603018007CC6FEC0C0C67C0000000000006600003818181818183C000000000C
:2038C00000183C66003818181818183C0000000000603018003818181818183C00000000AE
:2038E00000C60010386CC6C6FEC6C6C600000000386C3800386CC6C6FEC6C6C60000000016
:2039000018306000FE66607C606066FE0000000000000000006E3B1B7ED8DC77000000002E
:2039200000003E6CCCCCFECCCCCCCCCE000000000010386C007CC6C6C6C6C67C00000000BF
:203940000000C600007CC6C6C6C6C67C0000000000603018007CC6C6C6C6C67C000000004D
:20396000003078CC00CCCCCCCCCCCC76000000000060301800CCCCCCCCCCCC7600000000AF
:203980000000C60000C6C6C6C6C6C67E060C780000C6007CC6C6C6C6C6C6C67C000000008D
:2039A00000C600C6C6C6C6C6C6C6C67C000000000018187EC3C0C0C0C37E18180000000073
:2039C00000386C6460F060606060E6FC000000000000C3663C18FF18FF1818180000000052
:2039E00000FC66667C62666F666666F300000000000E1B1818187E1818181818D870000078
:203A00000018306000780C7CCCCCCC7600000000000C1830003818181818183C00000000E4
:203A200000183060007CC6C6C6C6C67C000000000018306000CCCCCCCCCCCC760000000022
:203A4000000076DC00DC6666666666660000000076DC00C6E6F6FEDECEC6C6C600000000E4
:203A6000003C6C6C3E007E00000000000000000000386C6C38007C000000000000000000B2
:203A80000000303000303060C0C6C67C00000000000000000000FEC0C0C0C0000000000040
:203AA000000000000000FE06060606000000000000C0C0C2C6CC183060CE9B060C1F0000DA
:203AC00000C0C0C2C6CC183066CE963E0606000000001818001818183C3C3C180000000072
:203AE0000000000000366CD86C360000000000000000000000D86C366CD8000000000000EC
:203B00001144114411441144114411441144114455AA55AA55AA55AA55AA55AA55AA55AA05
:203B2000DD77DD77DD77DD77DD77DD77DD77DD771818181818181818181818181818181865
:203B400018181818181818F818181818181818181818181818F818F81818181818181818C5
:203B600036363636363636F6363636363636363600000000000000FE363636363636363677
:203B80000000000000F818F818181818181818183636363636F606F63636363636363636AD
:203BA000363636363636363636363636363636360000000000FE06F63636363636363636FB
:203BC0003636363636F606FE000000000000000036363636363636FE000000000000000065
:203BE0001818181818F818F8000000000000000000000000000000F818181818181818188D
:203C0000181818181818181F000000000000000018181818181818FF000000000000000036
:203C200000000000000000FF1818181818181818181818181818181F18181818181818183E
:203C400000000000000000FF000000000000000018181818181818FF1818181818181818FE
:203C600018181818181F181F18181818181818183636363636363637363636363636363655
:203C8000363636363637303F000000000000000000000000003F303736363636363636361A
:203CA0003636363636F700FF00000000000000000000000000FF00F736363636363636365A
:203CC000363636363637303736363636363636360000000000FF00FF00000000000000008A
:203CE0003636363636F700F736363636363636361818181818FF00FF0000000000000000A2
:203D000036363636363636FF00000000000000000000000000FF00FF18181818181818186C
:203D200000000000000000FF3636363636363636363636363636363F00000000000000001B
:203D400018181818181F181F000000000000000000000000001F181F18181818181818187F
:203D6000000000000000003F363636363636363636363636363636FF36363636363636362B
:203D80001818181818FF18FF181818181818181818181818181818F8000000000000000035
:203DA000000000000000001F1818181818181818FFFFFFFFFFFFFFFFFFFFFFFFFFFFFFFF34
:203DC00000000000000000FFFFFFFFFFFFFFFFFFF0F0F0F0F0F0F0F0F0F0F0F0F0F0F0F0EC
:203DE0000F0F0F0F0F0F0F0F0F0F0F0F0F0F0F0FFFFFFFFFFFFFFF000000000000000000DA
:203E0000000000000076DCD8D8D8DC7600000000000078CCCCCCD8CCC6C6C6CC00000000D8
:203E20000000FEC6C6C0C0C0C0C0C0C00000000000000000FE6C6C6C6C6C6C6C00000000C6
:203E4000000000FEC66030183060C6FE0000000000000000007ED8D8D8D8D870000000007C
:203E60000000000066666666667C6060C00000000000000076DC1818181818180000000066
:203E80000000007E183C6666663C187E00000000000000386CC6C6FEC6C66C3800000000EE
:203EA0000000386CC6C6C66C6C6C6CEE0000000000001E30180C3E666666663C00000000EA
:203EC00000000000007EDBDBDB7E00000000000000000003067EDBDBF37E60C00000000087
:203EE00000001C3060607C606060301C000000000000007CC6C6C6C6C6C6C6C60000000022
:203F000000000000FE0000FE0000FE00000000000000000018187E18180000FF00000000CA
:203F200000000030180C060C1830007E000000000000000C18306030180C007E00000000CF
:203F400000000E1B1B18181818181818181818181818181818181818D8D8D870000000005D
:203F6000000000001818007E0018180000000000000000000076DC0076DC000000000000BF
:203F800000386C6C38000000000000000000000000000000000000181800000000000000A9
:203FA00000000000000000001800000000000000000F0C0C0C0C0CEC6C6C3C1C0000000082
:203FC00000D86C6C6C6C6C0000000000000000000070D83060C8F800000000000000000055
:203FE000000000007C7C7C7C7C7C7C0000000000000000000000000000000000000000005D
:00000001FF